S0150000626172636F64655F66697273742E73726563B8
S11300000C942A000C9434000C9434000C943400A6
S11300100C9434000C9434000C9434000C9434008C
S11300200C9434000C9434000C9434000C9434007C
S11300300C9434000C9434000C9434000C9434006C
S11300400C9434000C9434000C9434000C9434005C
S11300500C94340011241FBECFE5D8E0DEBFCDBF21
S11300600E94EE010C9471020C9400004130A1F541
S1130070813089F028F08230C9F0833011F108957D
S11300802AB381E090E002C0880F991F6A95E2F7D5
S1130090822B8ABB089527B381E090E002C0880FC9
S11300A0991F6A95E2F7822B87BB089524B381E0F8
S11300B090E002C0880F991F6A95E2F7822B84BBF7
S11300C0089521B381E090E002C0880F991F6A95DA
S11300D0E2F7822B81BB0895813091F028F08230C1
S11300E0D9F0833029F108952AB381E090E002C069
S11300F0880F991F6A95E2F7809582238ABB089539
S113010027B381E090E002C0880F991F6A95E2F757
S11301108095822387BB089524B381E090E002C0D8
S1130120880F991F6A95E2F78095822384BB08950E
S113013021B381E090E002C0880F991F6A95E2F72D
S11301408095822381BB0895813001F130F08230A3
S1130150B1F1833009F44CC00895413059F42BB304
S113016081E090E002C0880F991F6A95E2F7822B24
S11301708BBB08952BB381E090E002C0880F991FD8
S11301806A95E2F7809582238BBB0895413059F438
S113019028B381E090E002C0880F991F6A95E2F7C6
S11301A0822B88BB089528B381E090E002C0880FB9
S11301B0991F6A95E2F78095822388BB08954130A0
S11301C059F425B381E090E002C0880F991F6A9525
S11301D0E2F7822B85BB089525B381E090E002C04D
S11301E0880F991F6A95E2F78095822385BB08954D
S11301F0413059F422B381E090E002C0880F991F86
S11302006A95E2F7822B82BB089522B381E090E0E5
S113021002C0880F991F6A95E2F78095822382BBFA
S11302200895CF93C82F40E061E081E00E94A400CC
S113023040E062E081E00E94A40040E063E081E0ED
S11302400E94A4008BB39C2F907F8F70892B8BBB53
S113025041E063E081E00E94A4008FE99FE0019700
S1130260F1F700C0000040E063E081E00E94A400D8
S113027020E1C29FC00111249BB39F70892B8BBBCB
S113028041E063E081E00E94A4008FE99FE00197D0
S1130290F1F700C0000040E063E081E00E94A400A8
S11302A08FE19EE40197F1F700C00000CF9108951B
S11302B041E061E081E00E94360041E062E081E0DB
S11302C00E94360041E063E081E00E94360041E094
S11302D064E080E00E94360041E065E080E00E9436
S11302E0360041E066E080E00E94360041E067E0CD
S11302F080E00E9436002FEF81EE94E02150804090
S11303009040E1F700C0000083E30E94110182E302
S11303100E94110188E20E9411018CE00E941101E7
S113032081E00E94110186E00E94110182E00E9496
S113033011012FEF81EE94E0215080409040E1F7CD
S113034000C000000895CF93C82F41E061E081E030
S11303500E94A40040E062E081E00E94A40040E02A
S113036063E081E00E94A4008BB39C2F907F8F7088
S1130370892B8BBB41E063E081E00E94A4008FE9FC
S11303809FE00197F1F700C0000040E063E081E0E6
S11303900E94A40020E1C29FC00111249BB39F705E
S11303A0892B8BBB41E063E081E00E94A4008FE9CC
S11303B09FE00197F1F700C0000040E063E081E0B6
S11303C00E94A4008FE19EE40197F1F700C00000B1
S11303D0CF91089581E00E9411010895CF93DF9396
S11303E0CDB7DEB72F970FB6F894DEBF0FBECDBFE3
S11303F00E9458010E943602C12CD12C76010E9421
S11304004B02182F80ED810F8C34A8F4C701B6017C
S11304102FE030E040E050E00E944F02E1E0F0E0E5
S1130420EC0FFD1FE60FF71F10838FEFC81AD80AD1
S1130430E80AF80AE4CF0E94EA0110E00AC0E1E009
S1130440F0E0EC0FFD1FE10FF11D80810E94A3017C
S11304501F5F812F90E0A0E0B0E08C159D05AE05F4
S1130460BF0568F3C12CD12C7601C9CF40E060E010
S113047083E00E94360041E061E083E00E943600A0
S113048087E689B98AB188608AB98AB180618AB9F4
S113049086E880BD08955F9BFECF8CB10895A1E2EC
S11304A01A2EAA1BBB1BFD010DC0AA1FBB1FEE1FEA
S11304B0FF1FA217B307E407F50720F0A21BB30B35
S11304C0E40BF50B661F771F881F991F1A9469F7B1
S11304D060957095809590959B01AC01BD01CF010D
S10904E00895F894FFCF1B
S9030000FC
