S011000053656E7444617461312E73726563CE
S11300000C942A000C9490020C943C000C943C0038
S11300100C943C000C943C000C943C000C943C006C
S11300200C943C000C943C000C943C000C943C005C
S11300300C943C000C943C000C943C000C943C004C
S11300400C943C000C943C000C943C000C943C003C
S11300500C943C0011241FBECFE5D8E0DEBFCDBF19
S113006020E0A0E6B0E001C01D92A136B207E1F79E
S11300700E9487020C9401030C9400004130A1F506
S1130080813089F028F08230C9F0833011F108956D
S11300902AB381E090E002C0880F991F6A95E2F7C5
S11300A0822B8ABB089527B381E090E002C0880FB9
S11300B0991F6A95E2F7822B87BB089524B381E0E8
S11300C090E002C0880F991F6A95E2F7822B84BBE7
S11300D0089521B381E090E002C0880F991F6A95CA
S11300E0E2F7822B81BB0895813091F028F08230B1
S11300F0D9F0833029F108952AB381E090E002C059
S1130100880F991F6A95E2F7809582238ABB089528
S113011027B381E090E002C0880F991F6A95E2F747
S11301208095822387BB089524B381E090E002C0C8
S1130130880F991F6A95E2F78095822384BB0895FE
S113014021B381E090E002C0880F991F6A95E2F71D
S11301508095822381BB0895813001F130F0823093
S1130160B1F1833009F44CC00895413059F42BB3F4
S113017081E090E002C0880F991F6A95E2F7822B14
S11301808BBB08952BB381E090E002C0880F991FC8
S11301906A95E2F7809582238BBB0895413059F428
S11301A028B381E090E002C0880F991F6A95E2F7B6
S11301B0822B88BB089528B381E090E002C0880FA9
S11301C0991F6A95E2F78095822388BB0895413090
S11301D059F425B381E090E002C0880F991F6A9515
S11301E0E2F7822B85BB089525B381E090E002C03D
S11301F0880F991F6A95E2F78095822385BB08953D
S1130200413059F422B381E090E002C0880F991F75
S11302106A95E2F7822B82BB089522B381E090E0D5
S113022002C0880F991F6A95E2F78095822382BBEA
S11302300895813089F028F08230C9F0833011F1BB
S113024008952BB381E090E002C0880F991F6A954E
S1130250E2F782278BBB089528B381E090E002C0C7
S1130260880F991F6A95E2F7822788BB089525B302
S113027081E090E002C0880F991F6A95E2F7822717
S113028085BB089522B381E090E002C0880F991FD6
S11302906A95E2F7822782BB08958FB780688FBF83
S11302A008950E944D018BB780648BBF85B7816030
S11302B085BF85B7826085BF0895CF93C82F40E07E
S11302C061E081E00E94AC0040E062E081E00E94D5
S11302D0AC0040E063E081E00E94AC008BB39C2F53
S11302E0907F8F70892B8BBB41E063E081E00E949B
S11302F0AC008FE99FE00197F1F700C0000040E0F7
S113030063E081E00E94AC0020E1C29FC00111249F
S11303109BB39F70892B8BBB41E063E081E00E941B
S1130320AC008FE99FE00197F1F700C0000040E0C6
S113033063E081E00E94AC008FE19EE40197F1F755
S113034000C00000CF91089541E061E081E00E9487
S11303503E0041E062E081E00E943E0041E063E053
S113036081E00E943E0041E064E080E00E943E00A3
S113037041E065E080E00E943E0041E066E080E00C
S11303800E943E0041E067E080E00E943E002FEFC3
S113039081EE94E0215080409040E1F700C00000DD
S11303A083E30E945D0182E30E945D0188E20E9472
S11303B05D018CE00E945D0181E00E945D0186E0A8
S11303C00E945D0182E00E945D012FEF81EE94E0C6
S11303D0215080409040E1F700C000000895CF9381
S11303E0C82F41E061E081E00E94AC0040E062E09F
S11303F081E00E94AC0040E063E081E00E94AC0038
S11304008BB39C2F907F8F70892B8BBB41E063E073
S113041081E00E94AC008FE99FE00197F1F700C0F2
S1130420000040E063E081E00E94AC0020E1C29F54
S1130430C00111249BB39F70892B8BBB41E063E007
S113044081E00E94AC008FE99FE00197F1F700C0C2
S1130450000040E063E081E00E94AC008FE19EE494
S11304600197F1F700C00000CF91089581E00E9448
S11304705D0108950F931F93CF93DF93CDB7DEB73C
S11304802A970FB6F894DEBF0FBECDBF00E013C0AD
S11304902AE030E040E050E00E94DF02E1E0F0E0DA
S11304A0EC0FFD1FE00FF11D605D60830F5F622F95
S11304B0732F842F952F611571058105910541F7DF
S11304C010E0015011090BC0E1E0F0E0EC0FFD1F5A
S11304D0E00FF11F80810E94EF01015011091123E7
S11304E09CF72A960FB6F894DEBF0FBECDBFDF91FE
S11304F0CF911F910F91089541E062E082E00E9444
S11305003E00089562E082E00E94190108950E946D
S113051051010E94A4010E94C6020E947C02FFCFE6
S11305201F920F920FB60F9211242F933F934F9364
S11305305F936F937F938F939F93AF93BF93EF9347
S1130540FF930E9482020E9436026091600070E074
S113055080E090E00E943A02809160000E94DB02F9
S1130560809160008F5F80936000FF91EF91BF9155
S1130570AF919F918F917F916F915F914F913F9137
S11305802F910F900FBE0F901F90189540E060E0E0
S113059083E00E943E0041E061E083E00E943E006F
S11305A087E689B98AB188608AB98AB180618AB9D3
S11305B086E880BD08958CB95D9BFECF0895A1E2C5
S11305C01A2EAA1BBB1BFD010DC0AA1FBB1FEE1FC9
S11305D0FF1FA217B307E407F50720F0A21BB30B14
S11305E0E40BF50B661F771F881F991F1A9469F790
S11305F060957095809590959B01AC01BD01CF01EC
S10906000895F894FFCFF9
S9030000FC
