:100000000C942A000C943C000C943C000C943C0092
:100010000C943C000C943C000C943C000C943C0070
:100020000C943C000C943C000C943C000C943C0060
:100030000C943C000C943C000C943C000C943C0050
:100040000C943C000C943C000C943C000C943C0040
:100050000C943C0011241FBECFE5D8E0DEBFCDBF1D
:1000600020E0A0E6B0E001C01D92A137B207E1F7A1
:100070000E9416030C9403050C9400004130A1F576
:10008000813089F028F08230C9F0833011F1089571
:100090002AB381E090E002C0880F991F6A95E2F7C9
:1000A000822B8ABB089527B381E090E002C0880FBD
:1000B000991F6A95E2F7822B87BB089524B381E0EC
:1000C00090E002C0880F991F6A95E2F7822B84BBEB
:1000D000089521B381E090E002C0880F991F6A95CE
:1000E000E2F7822B81BB0895813091F028F08230B5
:1000F000D9F0833029F108952AB381E090E002C05D
:10010000880F991F6A95E2F7809582238ABB08952C
:1001100027B381E090E002C0880F991F6A95E2F74B
:100120008095822387BB089524B381E090E002C0CC
:10013000880F991F6A95E2F78095822384BB089502
:1001400021B381E090E002C0880F991F6A95E2F721
:100150008095822381BB0895813001F130F0823097
:10016000B1F1833009F44CC00895413059F42BB3F8
:1001700081E090E002C0880F991F6A95E2F7822B18
:100180008BBB08952BB381E090E002C0880F991FCC
:100190006A95E2F7809582238BBB0895413059F42C
:1001A00028B381E090E002C0880F991F6A95E2F7BA
:1001B000822B88BB089528B381E090E002C0880FAD
:1001C000991F6A95E2F78095822388BB0895413094
:1001D00059F425B381E090E002C0880F991F6A9519
:1001E000E2F7822B85BB089525B381E090E002C041
:1001F000880F991F6A95E2F78095822385BB089541
:10020000413059F422B381E090E002C0880F991F79
:100210006A95E2F7822B82BB089522B381E090E0D9
:1002200002C0880F991F6A95E2F78095822382BBEE
:10023000089586B3829586958695837091E0892787
:10024000817008950E9419018823E1F388B38064C6
:1002500088BB25E02A95F1F7000088B38F7788BB2B
:1002600085E08A95F1F70000B699FECF90E040E076
:1002700050E0BA0119C088B3806888BB25E02A9590
:10028000F1F70000440F551F661F771F88B38F7763
:1002900088BB85E08A95F1F70000B69B04C04F5FEC
:1002A0005F4F6F4F7F4F9F5F983128F3689415F829
:1002B00076956795579547951694D1F788B38068DA
:1002C00088BB25E02A95F1F7000088B38F7788BBBB
:1002D00085E08A95F1F70000CB01BA0180580895B6
:1002E000803449F0803819F0803261F408C081E030
:1002F0008093680007C083E08093680003C082E0B9
:100300008093680088B38F7788BB0E94220108958C
:1003100097B3906897BB97B39F7B97BB98B3906454
:1003200098BB0E9470010895CF92DF92EF92FF92E6
:10033000CF93DF93D82FC0E0C12CD12C760107C01A
:100340000E942201C60ED71EE81EF91ECF5FCD17F0
:10035000B8F32D2F30E040E050E0C701B6010E9415
:10036000E404CA01B901DF91CF91FF90EF90DF90D3
:10037000CF9008950F931F930E9494010091640001
:10038000109165002091660030916700601B710B31
:10039000820B930B0E9412041F910F9108950E94EB
:1003A000BA012091690030916A0040916B00509130
:1003B0006C000E94680308956093690070936A005E
:1003C00080936B0090936C00089560936400709329
:1003D0006500809366009093670008950E949401E1
:1003E0000E9412040E94DA030E94E5010895CF934F
:1003F000C82F40E061E081E00E94AC0040E062E094
:1004000081E00E94AC0040E063E081E00E94AC002B
:100410008BB39C2F907F8F70892B8BBB41E063E067
:1004200081E00E94AC008FE99FE00197F1F700C0E6
:10043000000040E063E081E00E94AC0020E1C29F48
:10044000C00111249BB39F70892B8BBB41E063E0FB
:1004500081E00E94AC008FE99FE00197F1F700C0B6
:10046000000040E063E081E00E94AC008FE19EE488
:100470000197F1F700C00000CF91089541E061E0DD
:1004800081E00E943E0041E062E081E00E943E0087
:1004900041E063E081E00E943E0041E064E080E0F2
:1004A0000E943E0041E065E080E00E943E0041E0A5
:1004B00066E080E00E943E0041E067E080E00E944C
:1004C0003E002FEF81EE94E0215080409040E1F714
:1004D00000C0000083E30E94F70182E30E94F7015D
:1004E00088E20E94F7018CE00E94F70181E00E94FF
:1004F000F70186E00E94F70182E00E94F7012FEFEA
:1005000081EE94E0215080409040E1F700C000006F
:100510000895CF93C82F41E061E081E00E94AC00D4
:1005200040E062E081E00E94AC0040E063E081E0F6
:100530000E94AC008BB39C2F907F8F70892B8BBB5C
:1005400041E063E081E00E94AC008FE99FE0019709
:10055000F1F700C0000040E063E081E00E94AC00E1
:1005600020E1C29FC00111249BB39F70892B8BBBDC
:1005700041E063E081E00E94AC008FE99FE00197D9
:10058000F1F700C0000040E063E081E00E94AC00B1
:100590008FE19EE40197F1F700C00000CF9108952C
:1005A00081E00E94F70108950F931F93CF93DF938B
:1005B000CDB7DEB72A970FB6F894DEBF0FBECDBF1A
:1005C00000E013C02AE030E040E050E00E94C204A6
:1005D000E1E0F0E0EC0FFD1FE00FF11D605D6083D6
:1005E0000F5F622F732F842F952F61157105810581
:1005F000910541F710E0015011090BC0E1E0F0E076
:10060000EC0FFD1FE00FF11F80810E948902015055
:10061000110911239CF72A960FB6F894DEBF0FBE7E
:10062000CDBFDF91CF911F910F9108950E943E029F
:1006300080E80E94880160E070E080EC9FE30E9407
:10064000DC018AE00E94EE018AE00E94CF01609303
:100650006D0070936E0080936F00909370002091F6
:1006600060003091610040916200509163000E94EF
:1006700063038823F1F00E94D00260916D007091B5
:100680006E0080916F00909170000E94E1030E94C3
:10069000D40280916D0090916E00A0916F00B09196
:1006A00070008093600090936100A0936200B0930B
:1006B00063002FEF89E698E1215080409040E1F7F8
:1006C00000C00000C1CF0E944D0408F481E00895ED
:1006D0000E947C030C9488040E94810458F00E94BC
:1006E0007A0440F029F45F3F29F00C947104511111
:1006F0000C94BC040C9477040E94990468F3992329
:10070000B1F3552391F3951B550BBB27AA2762170D
:100710007307840738F09F5F5F4F220F331F441F1A
:10072000AA1FA9F335D00E2E3AF0E0E832D091504E
:100730005040E695001CCAF72BD0FE2F29D0660F3B
:10074000771F881FBB1F261737074807AB07B0E87E
:1007500009F0BB0B802DBF01FF2793585F4F3AF084
:100760009E3F510578F00C9471040C94BC045F3FDB
:10077000E4F3983ED4F3869577956795B795F7950A
:100780009F5FC9F7880F911D9695879597F90895F2
:10079000E1E0660F771F881FBB1F6217730784078E
:1007A000BA0720F0621B730B840BBA0BEE1F88F79D
:1007B000E09508950E94E1036894B1110C94BC0483
:1007C00008950E94A10488F09F5798F0B92F9927A7
:1007D000B751B0F0E1F0660F771F881F991F1AF02C
:1007E000BA95C9F714C0B13091F00E94BB04B1E0D2
:1007F00008950C94BB04672F782F8827B85F39F0D1
:10080000B93FCCF3869577956795B395D9F73EF4C4
:1008100090958095709561957F4F8F4F9F4F08956C
:10082000E89409C097FB3EF490958095709561958A
:100830007F4F8F4F9F4F9923A9F0F92F96E9BB2740
:100840009395F695879577956795B795F111F8CFBC
:10085000FAF4BB0F11F460FF1BC06F5F7F4F8F4F27
:100860009F4F16C0882311F096E911C0772321F01D
:100870009EE8872F762F05C0662371F096E8862FB5
:1008800070E060E02AF09A95660F771F881FDAF70C
:10089000880F9695879597F90895990F0008550F39
:1008A000AA0BE0E8FEEF16161706E807F907C0F0F6
:1008B00012161306E407F50798F0621B730B840BFE
:1008C000950B39F40A2661F0232B242B252B21F4D8
:1008D00008950A2609F4A140A6958FEF811D811D78
:1008E000089597F99F6780E870E060E008959FEFB2
:1008F00080EC089500240A941616170618060906B7
:10090000089500240A941216130614060506089585
:10091000092E0394000C11F4882352F0BB0F40F40D
:10092000BF2B11F460FF04C06F5F7F4F8F4F9F4F4D
:10093000089557FD9058440F551F59F05F3F71F0CF
:100940004795880F97FB991F61F09F3F79F0879536
:100950000895121613061406551FF2CF4695F1DFBF
:1009600008C0161617061806991FF1CF869571054F
:10097000610508940895E894BB2766277727CB0183
:1009800097F90895A1E21A2EAA1BBB1BFD010DC009
:10099000AA1FBB1FEE1FFF1FA217B307E407F5072F
:1009A00020F0A21BB30BE40BF50B661F771F881F0B
:1009B000991F1A9469F760957095809590959B01A1
:1009C000AC01BD01CF010895052E97FB1EF40094E4
:1009D0000E94FB0457FD07D00E94C20407FC03D00D
:1009E0004EF40C94FB0450954095309521953F4F63
:1009F0004F4F5F4F089590958095709561957F4F0B
:0A0A00008F4F9F4F0895F894FFCF29
:00000001FF
